:020000040800F2
:1000000000000220C52B00089D2A0008A52A000830
:10001000AD2A0008B52A0008BD2A0008000000002B
:10002000000000000000000000000000C52A0008D9
:10003000D32A000800000000E12A0008EF2A000887
:10004000152C0008152C0008152C0008152C00088C
:10005000152C0008152C0008152C0008152C00087C
:10006000152C0008152C0008152C0008152C00086C
:10007000152C0008152C0008152C0008152C00085C
:10008000152C0008152C0008152C0008152C00084C
:10009000152C0008152C0008152C0008152C00083C
:1000A000152C0008152C0008152C0008152C00082C
:1000B000112B0008152C0008152C0008152C000821
:1000C000152C0008152C0008152C0008152C00080C
:1000D000152C0008152C0008152C0008152C0008FC
:1000E000252B0008152C0008152C0008152C0008DD
:1000F000152C0008152C0008152C0008152C0008DC
:10010000152C0008152C0008152C0008152C0008CB
:10011000152C0008152C0008152C0008152C0008BB
:10012000FD2A0008152C0008152C0008152C0008C5
:10013000152C0008152C0008152C0008152C00089B
:10014000152C0008152C0008152C0008152C00088B
:10015000152C0008152C0008152C0008152C00087B
:10016000152C0008152C0008152C0008152C00086B
:10017000152C0008152C0008152C000800000000A4
:08018000152C0008152C0008E5
:1001900010B5054C237833B9044B13B10448AFF3C1
:1001A00000800123237010BD5C00002000000000CF
:1001B000BC6C000808B5034B1BB103490348AFF3FF
:1001C000008008BD0000000060000020BC6C00083A
:1001D000034613F8012B002AFBD1181A0138704787
:1001E00001F0FF01102A2BDB10F0070F08D010F8E8
:1001F000013B013A8B422DD010F0070F42B3F6D1EC
:10020000F0B441EA012141EA014122F007047FF004
:1002100000070023F0E80256083C85EA010586EA5B
:10022000010685FA47F5A3FA87F586FA47F6A5FA97
:1002300087F68EB9EED1F0BC01F0FF0102F00702A3
:1002400032B110F8013B013A83EA010313B1F8D14E
:100250000020704701387047002D06BF354603382F
:10026000073815F0010F07D1013015F4807F02BF68
:10027000013015F4C03F0130F0BC0138704700BFB9
:1002800053B94AB9002908BF00281CBF4FF0FF31FD
:100290004FF0FF3000F06AB9ADF1080C6DE904CE03
:1002A00000F006F8DDF804E0DDE9022304B0704751
:1002B0002DE9F047089D0C46002B4ED194468C4505
:1002C0008646B2FA82F262D94AB1C2F12003914065
:1002D00020FA03F30CFA02FC194300FA02FE4FEA7B
:1002E0001C471FFA8CF6B1FBF7F44FEA1E4307FBDD
:1002F000141143EA014304FB06F199420AD91CEBAD
:10030000030304F1FF3080F01281994240F20F8123
:10031000023C6344591A1FFA8EF3B1FBF7F007FB56
:10032000101143EA014300FB06F69E420AD91CEB7A
:10033000030300F1FF3180F0FC809E4240F2F9801F
:10034000634402389B1B40EA044000211DB1D340A6
:100350000022C5E90032BDE8F0878B4205D90DB116
:10036000C5E9000100210846F5E7B3FA83F1002949
:1003700046D1A34202D39042C0F0F080861A64EBCB
:1003800003030120002DE6D0C5E90063E3E7002A5E
:1003900040F09080A1EB0C044FEA1C481FFA8CF748
:1003A0000121B4FBF8F64FEA1E4308FB164443EA6A
:1003B000044307FB06F0984208D91CEB030306F13F
:1003C000FF3402D2984200F2CD8026461C1A1FFA52
:1003D0008EF3B4FBF8F008FB104443EA044300FB3F
:1003E00007F79F4208D91CEB030300F1FF3402D248
:1003F0009F4200F2B0802046DB1B40EA0640A5E7A2
:10040000C1F120068B4022FA06F71F4320FA06FCB2
:1004100004FA01F343EA0C03F44000FA01F8380C43
:100420004FEA1349B4FBF0FE1FFA87FC00FB1E44A1
:1004300049EA04440EFB0CF9A14502FA01F20AD97B
:100440003C190EF1FF3A80F08480A14540F2818092
:10045000AEF1020E3C44A4EB09041FFA83F9B4FB8D
:10046000F0F300FB134449EA044403FB0CFCA445ED
:1004700007D93C1903F1FF3067D2A44565D9023B87
:100480003C4443EA0E40A0FB0293A4EB0C049C42C4
:10049000CE469C4651D34ED055B1B8EB0E0364EB1B
:1004A0000C0404FA06F6CB401E43CC40C5E90064B8
:1004B000002150E7C2F1200320FA03F10CFA02FCFC
:1004C00024FA03F394400C434FEA1C4800FA02FE5E
:1004D0001FFA8CF7B3FBF8F008FB1031230C43EA4A
:1004E000014300FB07F1994208D91CEB030300F11B
:1004F000FF362CD299422AD9023863445B1AA4B23F
:10050000B3FBF8F108FB113344EA034401FB07F3A2
:10051000A34208D91CEB040401F1FF3613D2A34215
:1005200011D902396444E41A41EA004139E704462A
:10053000F0E6084606E7C845AED2B9EB020E63EB1B
:10054000070C0138A8E73146EDE7034699E7304646
:10055000D4E7D6467FE7634402384DE70646234694
:1005600008460FE7023E634430E700BF704700BF14
:1005700080B588B000AF07F10C0300221A605A6002
:100580009A60DA601A610023BB60174B1B6B164A36
:1005900043F008031363144B1B6B03F00803BB60A9
:1005A000BB6800237B60104B1B6C0F4A43F4003385
:1005B00013640D4B1B6C03F400337B607B6860237A
:1005C000FB6002233B6101237B610323BB610723A3
:1005D000FB6107F10C031946044803F0B3FE00BFAA
:1005E0002037BD4680BD00BF00380240000C0240ED
:1005F0000FB480B5B2B000AF174B1B7883F0010386
:10060000DBB2002B1FD107F1D4033B60381D3B68E0
:10061000D7F8D020C02105F08BFEC7F8C400D7F86A
:10062000C430002B11DDD7F8C430BF2B02DDBF234F
:10063000C7F8C430D7F8C4309AB2391DC823074868
:1006400005F0ECF902E000BF00E000BFC837BD468E
:10065000BDE8804004B07047B0030020F8010020DE
:1006600080B582B002AF2C48FFF7C2FF01220821FB
:100670002A4804F01BF801224FF48051284804F066
:1006800015F801224021264804F010F840F2DC5110
:100690002448FFF7ADFF40F2DC5002F02FFB42F29E
:1006A00010712148FFF7A4FF42F2107000F036FEEF
:1006B0000346002B0CD01D48FFF79AFF64230093DC
:1006C000C82301224FF48061144800F06BFB0CE05A
:1006D00017491848FFF78CFF64230093C8230122B1
:1006E0004FF480410D4800F05DFB01224FF4806122
:1006F0000B4803F0DBFF01224FF400510E4803F0DA
:10070000D5FF012204210D4803F0D0FF0C48FFF76C
:100710006FFF00BFBD4680BDD46C0008000C0240D6
:1007200000080240F46C0008186D00083C6D0008D9
:10073000F00200204C6D000800040240001002404E
:100740006C6D000880B500AFC82340F2DC5240F663
:10075000B8311D48FFF74CFF0C2200211B4805F063
:10076000F5FD182200211A4805F0F0FD182200219D
:10077000184805F0EBFD184B00221A60174B0022B9
:100780001A70174B00221A60164B00221A600622BC
:100790000E49154802F0AAFC0346002B04D013486A
:1007A000FFF726FF02F006F8114804F099FC034613
:1007B000002B04D00F48FFF71BFF01F0FBFF0E4892
:1007C000FFF716FF00BF80BD986D000840020020B3
:1007D0004C020020640200209402002098020020B5
:1007E0009C020020A002002078000020D86D0008A4
:1007F00068010020FC6D0008246E000880B5BEB0C2
:1008000002AF00233B6307F134039C22002118460A
:1008100005F09CFDD248FFF7EBFE72B600BF002347
:1008200087F8EE302EE097F8EE2097F8EE30CD49BD
:1008300092000A4412689B00F0333B44D83B1A6094
:1008400097F8EE2097F8EE30C74992000A441268F4
:100850009B00F0333B44F03B1A6097F8EE30C14AFE
:100860009B0013444FF000021A6097F8EE30BE4A26
:100870009B0013444FF000021A6097F8EE300133EA
:1008800087F8EE3097F8EE30052BCCD9B74B1B68C4
:10089000C7F8E030B54B00221A60B54B00221A7041
:1008A00062B600BF002387F8ED3015E197F8ED3010
:1008B0009B00F0333B44D83B93ED007ADFEDAD6A0B
:1008C000C7EE267AC7ED377A97F8ED309B00F03304
:1008D0003B44F03BD3ED007ADFEDA66A87EEA67AC3
:1008E000D7ED377A67EEA77A77EE677AC7ED3A7A6F
:1008F00097F8ED3003339B00F0333B44D83B93ED46
:10090000007ADFED9C6AC7EE267AC7ED367A97F853
:10091000ED3003339B00F0333B44F03BD3ED007AE2
:10092000DFED946A87EEA67AD7ED367A67EEA77A7E
:1009300077EE677AC7ED397AD7ED3A7AF5EEC07A75
:10094000F1EE10FA03D54FF00003C7F8E830D7ED09
:10095000397AF5EEC07AF1EE10FA03D54FF00003C4
:10096000C7F8E43097ED3A0A06F086F9F0EE407ADF
:100970009FED817A67EE877A97F8ED309FED7F7A69
:1009800067EE877A7E4A9B001344C3ED007A97EDA9
:10099000390A06F071F9F0EE407A9FED777A67EE4A
:1009A000877A97F8ED309FED777A67EE877A764A07
:1009B0009B001344C3ED007AD7ED377AB0EE087A86
:1009C00067EE877A9FED717A27EE877ADFED706A9E
:1009D000C7EE267AFDEEE77A17EE903AC7F8D430E4
:1009E000D7ED367AB0EE087A67EE877A9FED677AB0
:1009F00027EE877ADFED666AC7EE267AFDEEE77AA4
:100A000017EE903AC7F8D03097F8ED30591C40F205
:100A1000DC530093D7F8D030D7F8D4205D48FFF7E7
:100A2000E7FD97F8ED30591C97F8ED30544A9B00DC
:100A30001344D3ED007AFDEEE76A97F8ED30504AA3
:100A40009B00134493ED007A97F8ED304C4A9B00DD
:100A50001344D3ED007AFDEEE77AF8EEE77A77EE0D
:100A6000677A9FED4D7A67EE877ABDEEE76A97F871
:100A7000ED30454A9B001344D3ED007AFDEEE77A52
:100A800017EE900A97F8ED303F4A9B00134493ED20
:100A9000007A97F8ED303C4A9B001344D3ED007A7E
:100AA000FDEEE77AF8EEE77A77EE677A9FED3A7A2D
:100AB00067EE877AFDEEE77A17EE903A01930090A1
:100AC00016EE103A16EE902A3448FFF791FD97F88B
:100AD000ED30013387F8ED3097F8ED30022B7FF6DB
:100AE000E5AED7F8E03007EE903AB8EE677AF1EE6F
:100AF000086AC7EE267A2A4BC3ED007A284BD3ED5D
:100B0000007A9FED257A67EE877AFDEEE77A17EE99
:100B1000902AD7F8E0102348FFF76AFD00F024FA86
:100B200001F0C6F907F13003A021184600F09EFD40
:100B3000034687F8EF3007F1300319461A48FFF7EC
:100B400057FD07F130031946022000F003FD03466C
:100B5000002B2BD097F8EF30002B27D0012326E075
:100B6000486E00084C02002064020020A002002011
:100B70009802002000004843010C403A14AE434163
:100B80007C0200207CF041418802002000007A4471
:100B900000F07F45606E00080000C8429C6E0008AF
:100BA000A4020020D06E0008FC6E0008002387F825
:100BB000EF3097F8EF3003F0010387F8EF3007F1DB
:100BC0003003A021184600F0FBFD0346002B1ED089
:100BD00007F1300319461F48FFF70AFD07F13003FC
:100BE0001946032000F0B6FC0346002B05D097F809
:100BF000EF30002B01D0012300E0002387F8EF3015
:100C000097F8EF3003F0010387F8EF3005E0124862
:100C1000FFF7EEFC002387F8EF3097F8EF30002B5A
:100C200005D00E48FFF7E4FC00F0E6F80BE00C48B6
:100C3000FFF7DEFC78230093782302224FF48041F3
:100C4000084800F0AFF800F00FF800BFF037BD46DD
:100C500080BD00BF146F00082C6F00084C6F0008A7
:100C6000646F0008000C024080B500AF01212448E9
:100C700003F004FD0346002B40D1032000F022F9CD
:100C800003461A461F4B1A801E4B1B88184600F05D
:100C9000E3F9F0EE407A1C4BC3ED007A1A4BD3ED2A
:100CA000007AFDEEE76A184B93ED007A164BD3ED10
:100CB000007AFDEEE77AF8EEE77A77EE677A9FED55
:100CC000137A67EE877AFDEEE77A0E4B1B8817EEF4
:100CD000902A16EE901A0E48FFF78AFC0A4BD3EDC5
:100CE000007A9FED0C7AF4EEC77AF1EE10FA00D498
:100CF00004E00948FFF77CFC00F010F800BF80BD5D
:100D0000000C0240AE020020B00200200000C842E9
:100D1000806F000866666640B06F000880B500AF5F
:100D20001848FFF765FC184804F04AFA174802F023
:100D3000F1FA174802F01CF900224021154803F08F
:100D4000B5FC00224FF40051134803F0AFFC002221
:100D50004FF480610F4803F0A9FC00224FF480514A
:100D60000C4803F0A3FC002204210C4803F09EFC75
:100D7000C82001F0C3FF00220821094803F096FCB7
:100D800000BFFDE7DC6F000868010020780000204C
:100D9000C000002000080240000402400010024091
:100DA000000C024080B586B000AFF8607B600B4657
:100DB0007B8113467B720023FB7514E07B89012243
:100DC0001946F86803F072FC786801F097FF7B8998
:100DD00000221946F86803F069FC386A01F08EFFBA
:100DE000FB7D0133FB75FA7D7B7A9A42E6D300BF27
:100DF00000BF1837BD4680BD80B500AF01224FF45B
:100E00008061104803F052FCC82001F077FF0022F7
:100E10004FF480610B4803F049FC642001F06EFF41
:100E200001224FF48061074803F040FCC82001F024
:100E300065FF00224FF48061024803F037FC00BFD9
:100E400080BD00BF000C024080B400AF094BDB68DE
:100E5000084A43F08073D360074B00225A60064B68
:100E60001B68054A43F00103136000BFBD465DF8EF
:100E7000047B7047F0ED00E0001000E080B584B026
:100E800000AF78600D4B5B68FB6004F0A5F803468B
:100E90000B4AA2FB03239A0C7B6802FB03F3BB60A3
:100EA00000BF064B5A68FB68D31ABA689A42F8D852
:100EB00000BF00BF1037BD4680BD00BF001000E07E
:100EC00083DE1B4380B588B000AF786007F10C0368
:100ED00000221A605A609A60DA600023FB831E4881
:100EE00002F046F87B68FB6001233B6104237B61D1
:100EF00007F10C031946184802F092FA0346002B3A
:100F000005D079681548FFF773FB00231FE01248EE
:100F100001F05CFF0346002B11D114210E4802F0B2
:100F20005AF80346002B05D10B4802F04DFA034650
:100F3000FB8308E079680A48FFF75AFB03E0796809
:100F40000848FFF755FB044802F012F8FB8B1846DF
:100F50002037BD4680BD00BFC0000020F86F0008EC
:100F60001C7000084070000890B583B002AF0020EC
:100F7000FFF7A8FF03461A46214B1A800120FFF70E
:100F8000A1FF03461A461F4B1A800220FFF79AFF63
:100F900003461A461C4B1A800320FFF793FF0346B3
:100FA0001A461A4B1A80194B1B88184600F054F841
:100FB000F0EE407A164BC3ED007A134B1B881946AE
:100FC000104B1B8818460E4B1B881C460F4B1B886A
:100FD0001A460F4BD3ED007A9FED0E7A67EE877AB3
:100FE000FDEEE77A17EE903A01930092234602460F
:100FF0000948FFF7FDFA00BF0437BD4690BD00BFAA
:10100000AC020020AA020020A8020020AE020020AC
:10101000B00200200000C8426470000880B483B0B1
:1010200000AF0346FB80FB8807EE903AF8EE677A44
:10103000B0EE087A67EE877A9FED067AC7EE876A88
:10104000F0EE667AB0EE670A0C37BD465DF8047BB9
:10105000704700BF00F07F4580B582B000AF034607
:10106000FB80FB881846FFF7D9FFF0EE407A9FED32
:10107000047A67EE877AB0EE670A0837BD4680BD0E
:101080002776E23F80B485B000AFF8607A603B60BD
:101090000B467B8110E07B681B881A46FB68134473
:1010A0003A6812781A707B681B8801339AB27B68A1
:1010B0001A803B6801333B603B681B78002B05D0EE
:1010C0007B681B885A1C7B899A42E4D37B681B8807
:1010D0001A46FB68134400221A7000BF1437BD463D
:1010E0005DF8047B7047000080B58AB000AFF860FF
:1010F0007A603B600B467B8100237B6107F118031C
:1011000000221A605A600C2387F8273097F827309E
:10111000013B87F8273097F8273028333B440022DB
:1011200003F8142C3B68002B03DA3B685B423B62FC
:1011300001E03B683B62396A1E4BA3FB0123DA08DE
:1011400013469B0013445B00CA1AD2B297F82730AB
:10115000013B87F8273097F827303032D2B2283356
:101160003B4403F8142C3B6A124AA2FB0323DB081E
:101170003B623B6A002BDED13B68002B0BDA97F811
:101180002730013B87F8273097F8273028333B4436
:101190002D2203F8142C97F8273007F1140213447A
:1011A00079897A68F868FFF76DFF00BF2837BD4678
:1011B00080BD00BFCDCCCCCC80B588B000AFF8608E
:1011C0000B467A6087ED000A7B81D7ED007A9FEDB0
:1011D0002C7A67EE877A97ED007AB5EEC07AF1EE59
:1011E00010FA02DBB6EE007A01E0BEEE007A77EE8E
:1011F000277AFDEEE77A17EE903ABB61BB69FB6197
:10120000FB69002B08DA79891E4B7A68F868FFF7CA
:1012100039FFFB695B42FB61FB691B4A82FB0312DE
:101220005211DB17D31A7B61FB69174A82FB031249
:101230005111DA178A1A642101FB02F29B1A3B61F1
:1012400079897B697A68F868FFF74EFF79890F4BD7
:101250007A68F868FFF716FF3B69092B05DC798986
:101260000B4B7A68F868FFF70DFF79893B697A685C
:10127000F868FFF739FF00BF2037BD4680BD00BFCB
:101280000000C8429C7000081F85EB51A070000848
:10129000A470000880B584B000AFF8607A603B604D
:1012A0000B467B8179893B687A68F868FFF7EAFE2C
:1012B0007989074B7A68F868FFF7E4FE3B8B7989F8
:1012C0007A68F868FFF710FF00BF1037BD4680BD91
:1012D000A870000880B582B000AF0023FB8002E058
:1012E000FB880133FB80052301220949094804F0EA
:1012F00020FC0346002BF3D0FB88002B04D0FB8896
:1013000019460548FFF774F900BF0837BD4680BD90
:10131000EC020020B0010020AC70000880B584B061
:1013200000AF78600023FB8101F0DCFCB860C022D4
:1013300000211B4805F00AF824E032230122194954
:10134000194804F0F6FB0346002B1BD1FB89BE2B8A
:101350000BD8FB895A1CFA811A46124B1978104B8C
:101360009954FB890E4A0021D15410490C4804F0CD
:10137000F5FF0346002B05D009490D48FFF738F962
:10138000012308E001F0AEFC0246BB68D31A7A687C
:101390009A42D2D8002318461037BD4680BD00BF00
:1013A000F0020020EC020020B0010020D070000804
:1013B000DC70000880B584B000AF7860396000232D
:1013C000FB81C0220021384804F0C0FFFFF782FFF4
:1013D00079683648FFF70CF97868FEF7F9FE03469E
:1013E0009AB24FF47A737968314804F017FB0346D8
:1013F000002B09D02E4804F033FC034619462D4833
:10140000FFF7F6F800234AE001F06CFCB86038E022
:10141000142301222849264804F08BFB0346002BA5
:101420002FD1FB89BE2B0BD8FB895A1CFA811A4697
:10143000214B19781C4B9954FB891B4A0021D1542C
:101440001E49194804F08AFF0346002B05D01649AF
:101450001B48FFF7CDF8012321E01A49124804F098
:101460007DFF0346002B06D117490F4804F076FF95
:101470000346002B05D00C491448FFF7B9F80023A8
:101480000DE001F02FFC0246BB68D31A3A689A427D
:10149000BED8054A39680E48FFF7AAF80023184657
:1014A0001037BD4680BD00BFF0020020F870000874
:1014B000B001002008710008EC020020287100082B
:1014C0002C71000840710008487100084C71000838
:1014D0006471000880B487B000AFF860B96013464B
:1014E000FB800023FB821FE0FB681B787B757B7D04
:1014F0001B09DBB203F00F02FB8A591CF982194663
:10150000BB680B4412498A5C1A707B7D03F00F02A2
:10151000FB8A591CF9821946BB680B440C498A5C4A
:101520001A70FB680133FB60FB681B78002B04D04A
:10153000FB8A9A1CFB889A42D6D3FB8ABA6813446A
:1015400000221A7000BF1C37BD465DF8047B70474F
:101550007875000880B5ADF52C7D00AF024607F523
:101560002C73A3F52C73196007F52C73A3F2A92330
:101570001A7007F52C73A3F5A27300221A600433C6
:1015800040F23D120021184604F0E0FE07F52C73EE
:10159000A3F5287300221A60043340F2551200218B
:1015A000184604F0D3FE07F52C73A3F2A223002201
:1015B0001A8007F5B67107F52C73A3F52C7340F26A
:1015C00041121868FFF786FF07F10E0207F11000BD
:1015D000224B40F25911FFF755FD07F52C73A3F28A
:1015E000A9231B7807F10E0207F1100040F25911F0
:1015F000FFF77AFD07F10E0207F11000184B40F2D9
:101600005911FFF73FFD07F5B67307F10E0207F119
:10161000100040F25911FFF735FD07F10E0207F1F6
:101620001000104B40F25911FFF72CFD07F52C73F9
:10163000A3F2A9231B7807F5B67219460A48FEF7EC
:10164000D7FF07F1100341F288311846FFF7B2FEC9
:101650000346184607F52C77BD4680BD8471000807
:1016600090710008947100089871000880B584B0EA
:1016700000AF78600B467B800023FB817B680022F3
:101680001A7007F10E027988434B7868FFF7FAFC6D
:10169000424BD3ED007A07F10E027B88B0EE670A69
:1016A00019467868FFF788FD07F10E0279883C4BF0
:1016B0007868FFF7E7FC394BD3ED017A07F10E02AA
:1016C0007B88B0EE670A19467868FFF775FD07F169
:1016D0000E027988334B7868FFF7D4FC2F4BD3ED9B
:1016E000027A07F10E027B88B0EE670A1946786825
:1016F000FFF762FD07F10E0279882B4B7868FFF740
:10170000C1FC2A4BD3ED007A07F10E027B88B0EEC4
:10171000670A19467868FFF74FFD07F10E027988CE
:10172000234B7868FFF7AEFC204BD3ED017A07F12D
:101730000E027B88B0EE670A19467868FFF73CFD19
:1017400007F10E0279881B4B7868FFF79BFC174B5B
:10175000D3ED027A07F10E027B88B0EE670A1946D4
:101760007868FFF729FD07F10E027988124B786837
:10177000FFF788FC114BD3ED007A07F10E027B884E
:10178000B0EE670A19467868FFF716FD0123184680
:101790001037BD4680BD00BFB87100087C02002034
:1017A000BC710008C4710008CC71000888020020D8
:1017B000D4710008DC710008E4710008A402002064
:1017C00080B586B002AF78600B467B800023BB817A
:1017D0007B6800221A70424B1B8807F10C02798843
:1017E0000093404B7868FFF755FD07F10C027988AC
:1017F0003D4B7868FFF746FC3C4B1B8807F10C0219
:10180000798800933A4B7868FFF744FD07F10C02A2
:101810007988354B7868FFF735FC364B1B8807F124
:101820000C0279880093344B7868FFF733FD07F199
:101830000C027988314B7868FFF724FC304BD3EDEC
:10184000007A07F10C027B88B0EE670A19467868C7
:10185000FFF7B2FC07F10C0279882A4B7868FFF792
:1018600011FC0023FB7333E0FB7B002B06D007F158
:101870000C027988244B7868FFF704FC234B1B7813
:10188000FA7B9A421AD2FB7B214AD35C002B15D0FB
:10189000FB7B204A52F8233007EE903AF8EEE77AC5
:1018A000DFED1D6A87EEA67A07F10C027B88B0EEA9
:1018B000470A19467868FFF77FFC06E007F10C023B
:1018C0007988164B7868FFF7DDFBFB7B0133FB73F0
:1018D000FB7B032BC8D9012318461037BD4680BDBA
:1018E000A8020020EC710008F0710008AA02002094
:1018F000F4710008AC020020F8710008FC710008C7
:10190000B00200200472000808720008D40200200F
:10191000E8020020D80200200000C8420C72000833
:1019200080B500AF01224FF40061024802F0BEFE14
:1019300000BF80BD0008024080B500AF00224FF418
:101940000061024802F0B2FE00BF80BD0008024004
:1019500080B500AF4FF40061054802F08FFE0346EA
:10196000012B01D1012300E00023184680BD00BFF8
:101970000008024080B582B000AFFFF7DDFF4FF4F2
:10198000F070FFF77BFAFFF7CBFF4620FFF776FA00
:10199000FFF7DEFF0346002B01D1012300E0002307
:1019A000FB714FF4CD70FFF769FAFB7918460837E1
:1019B000BD4680BD80B582B000AF0346FB71FFF726
:1019C000BBFFFB79002B08D00620FFF757FAFFF783
:1019D000A7FF4020FFF752FA07E03C20FFF74EFA3E
:1019E000FFF79EFF0A20FFF749FA00BF0837BD4600
:1019F00080BD80B582B000AFFFF79EFF0620FFF7E5
:101A00003DFAFFF78DFF0920FFF738FAFFF7A0FF37
:101A10000346FB713720FFF731FAFB791846083788
:101A2000BD4680BD80B584B000AF0346FB71002386
:101A3000FB730CE0FB7903F00103DBB21846FFF700
:101A4000B9FFFB795B08FB71FB7B0133FB73FB7B0D
:101A5000072BEFD900BF00BF1037BD4680BD80B552
:101A600082B000AF0023FB710023BB710EE0FB7955
:101A70005B08FB71FFF7BDFF0346002B03D0FB792A
:101A800063F07F03FB71BB790133BB71BB79072B1B
:101A9000EDD9FB7918460837BD4680BD80B485B0C6
:101AA00000AF78600B46FB700023FB730023BB7311
:101AB00025E0BB7B7A6813441B787B7300233B7360
:101AC00017E0FA7B7B7B5340DBB203F00103FB7230
:101AD000FB7B5B08FB73FB7A002B04D0FB7B83F062
:101AE0007303DB43FB737B7B5B087B733B7B0133C3
:101AF0003B733B7B072BE4D9BB7B0133BB73BA7BC6
:101B0000FB789A42D5D3FB7B18461437BD465DF867
:101B1000047B7047F0B591B006AF78600B46FB7060
:101B2000002387F8273000237B610023BB6100235B
:101B300087F82630002387F82530FAE00023FB6081
:101B400000233B61002387F82430002387F82330EB
:101B5000012387F82230FFF70DFF0346002B03D146
:101B60007C48FEF745FDEEE0F020FFF75BFF012328
:101B700087F8213078E0FFF73CFF0346FB77FFF75B
:101B800038FF0346BB77FB7F012B0BD1BB7F012BBB
:101B900008D197F8213019466F48FEF729FD97F8CC
:101BA0002730D2E0FA7FBB7F9A4203D0FB7F87F8D1
:101BB00020302AE097F8212097F826309A4211D257
:101BC00097F8233028333B4413F8142C97F822302D
:101BD0001340DBB2002B01D0012300E0002387F883
:101BE00020300AE097F8212097F826309A4201D158
:101BF000012300E0002387F8203097F82030002BE5
:101C000003D197F8213087F8243097F82030002B43
:101C10000FD097F8233028333B4413F81C1C97F857
:101C2000233097F822200A43D2B228333B4403F8EA
:101C30001C2C97F820301846FFF7BCFE97F822308E
:101C40005B0087F8223097F82230002B07D197F8F5
:101C50002330013387F82330012387F8223097F8A7
:101C60002130013387F8213097F82130402B82D979
:101C70003B7B282B43D107F10C0307211846FFF7C4
:101C80000DFF03461A46FB7C9A4238D197F827305D
:101C9000DB007A6813441A4607F10C0303CB10608B
:101CA000516007F1140307F10C0292E8030083E886
:101CB000030097F82730591C3B7B9C467B7B9E4654
:101CC000BB7BFA7B387C7C7CBD7CFE7C05960495D6
:101CD0000394029001920093734662461F48FEF7F8
:101CE00087FC97F82730013387F8273097F824309E
:101CF00087F8263097F82630002B17D019E03B7B69
:101D00001D467B7B1E46BB7B9C46FB7B3A7C797CDD
:101D1000B87CFC7C0494039002910192009363468A
:101D2000324629460E48FEF763FC0CE0012387F893
:101D3000253097F82530002B05D197F82720FB7820
:101D40009A42FFF4FBAE97F8273018462C37BD4671
:101D5000F0BD00BF107200084072000868720008F1
:101D6000A4720008F0B58BB006AF78603960FFF759
:101D700001FE0346002B04D13548FEF739FC002351
:101D800061E05520FFF74EFE0023FB7309E0FB7B6B
:101D90007A6813441B781846FFF744FEFB7B013337
:101DA000FB73FB7B072BF2D9BE20FFF73BFE002322
:101DB000BB7309E0BB7B3A68D418FFF750FE0346BB
:101DC0002370BB7B0133BB73BB7B082BF2D908218B
:101DD0003868FFF763FE03461A463B6808331B78F2
:101DE0009A422FD03B681B781E463B6801331B7814
:101DF0009C463B6802331B789E463B6803331B7846
:101E00001A463B6804331B7819463B6805331B7838
:101E100018463B6806331B781C463B6807331B7823
:101E20001D463B6808331B78059304950394029084
:101E3000019100927346624631460648FEF7D8FB90
:101E4000002300E0012318461437BD46F0BD00BF53
:101E5000E87200082073000880B586B000AF786093
:101E6000396007F10C0319467868FFF77BFF0346DA
:101E700083F00103DBB2002B01D0002313E03B7B96
:101E80001AB27B7B1B021BB21343FB82B7F91630DD
:101E9000642202FB03F3002B00DA0F331B111A46F6
:101EA0003B681A60012318461837BD4680BD000004
:101EB00090B583B000AF3948FEF79AFB042138484B
:101EC000FFF728FE03461A46364B1A700023FB71B3
:101ED0000BE0FB79344A002142F82310FB79334AA6
:101EE0000021D154FB790133FB71FB79032BF0D92D
:101EF0002C4B1B78002B03D12D48FEF779FB4AE0D1
:101F0000FFF738FD0346002B03D12A48FEF770FB8C
:101F100041E0244B1B7819462748FEF769FBCC208B
:101F2000FFF780FD4420FFF77DFD40F2EE2000F03A
:101F3000E5FE0023BB7129E0BB79DB00184A1A4497
:101F4000BB799B0018490B44BC7919461046FFF732
:101F500083FF03461A46154B1A55BB79134AD35CC7
:101F6000002B0AD0BB79591CBB790F4A52F8233099
:101F70001A461248FEF73CFB05E0BB7901331946CF
:101F80000F48FEF735FBBB790133BB71054B1B785E
:101F9000BA799A42D0D30C37BD4690BD747300080D
:101FA000B4020020D4020020D8020020E802002061
:101FB00090730008B0730008E07300081074000804
:101FC00034740008F0B583B002AF00F025FE00F0D5
:101FD00045F800F06BFA00F049FA00F0A9F800F0BB
:101FE0003FF900F0E3F900F00BFA00F08BF9164826
:101FF000FEF7FEFA02F0EAFE044602F0EDFF0546A7
:1020000002F0F6FF064603F007F803460093334656
:102010002A4621460D48FEF7EBFA0D48FEF7E8FA8E
:10202000FEF712FF0B48FEF7E3FAFEF719FBFFF786
:1020300077FCFEF787FB084B1B78DBB2002BFAD04E
:10204000FEF7DCFBF7E700BF647400088474000847
:10205000E4740008247500089802002080B594B04C
:1020600000AF07F1200330220021184604F06EF97A
:1020700007F10C0300221A605A609A60DA601A6154
:102080000023BB60284B1B6C274A43F0805313642A
:10209000254B1B6C03F08053BB60BB6800237B6047
:1020A000224B1B68214A43F4804313601F4B1B687B
:1020B00003F480437B607B6801233B624FF48033F1
:1020C0007B620223BB634FF48003FB6304233B6406
:1020D00048237B640223BB640423FB6407F12003D1
:1020E000184602F015FB0346002B01D000F062FBFE
:1020F0000F23FB6002233B6100237B614FF480537D
:10210000BB614FF48053FB6107F10C0302211846B9
:1021100002F076FD0346002B01D000F04BFB00BF20
:102120005037BD4680BD00BF0038024000700040FF
:1021300080B584B000AF3B4600221A605A609A60B6
:10214000DA60454B454A1A60434B4FF480325A607F
:10215000414B00229A60404B01221A613E4B002203
:102160001A763D4B002283F820203B4B4FF08052E3
:10217000DA62394B4FF0C0629A62374B0022DA6064
:10218000354B0622DA61344B012283F83020324B82
:1021900000225A61304800F0D5FD0346002B01D0E3
:1021A00000F008FB04233B6001237B600423BB6039
:1021B0003B461946284801F033F90346002B01D06D
:1021C00000F0F8FA06233B6002237B603B46194689
:1021D000214801F025F90346002B01D000F0EAFA6E
:1021E0000E233B6003237B603B4619461A4801F0EF
:1021F00017F90346002B01D000F0DCFA05233B6001
:1022000004237B603B461946134801F009F9034655
:10221000002B01D000F0CEFA07233B6005237B6042
:102220003B4619460C4801F0FBF80346002B01D051
:1022300000F0C0FA0F233B6006237B603B46194643
:10224000054801F0EDF80346002B01D000F0B2FA8A
:1022500000BF1037BD4680BD78000020002001403F
:1022600080B584B000AF3B4600221A605A609A6085
:10227000DA60214B214A1A601F4B00225A601E4B24
:1022800000229A601C4B00221A611B4B00221A7616
:10229000194B002283F82020174B0022DA62164BDC
:1022A000174A9A62144B0022DA60134B0122DA615A
:1022B000114B002283F830200F4B01225A610E4847
:1022C00000F040FD0346002B01D000F073FA032319
:1022D0003B6001237B600023BB603B4619460648F8
:1022E00001F09EF80346002B01D000F063FA00BF16
:1022F0001037BD4680BD00BFC00000200021014056
:102300000100000F80B586B000AF07F1080300227E
:102310001A605A609A60DA603B4600221A605A607E
:10232000214B4FF080421A601F4B42F2CF025A609D
:102330001D4B00229A601C4B6322DA601A4B00226C
:102340001A61194B00229A61174802F079FE034680
:10235000002B01D000F02EFA4FF48053BB6007F140
:1023600008031946104803F04AF80346002B01D031
:1023700000F020FA20233B6000237B603B46194697
:10238000094803F06BFA0346002B01D000F012FA63
:10239000002201211C2001F0BEFB1C2001F0D7FB14
:1023A00000BF1837BD4680BD6801002080B500AF72
:1023B000114B124A1A60104B4FF4E1325A600E4B27
:1023C00000229A600C4B0022DA600B4B00221A614B
:1023D000094B0C225A61084B00229A61064B0022DD
:1023E000DA61054803F0CAFA0346002B01D000F079
:1023F000E1F900BF80BD00BFB00100200010014026
:1024000080B500AFFEF7B4F8144B154A1A60134BB1
:102410004FF4E1325A60114B00229A600F4B0022B8
:10242000DA600E4B00221A610C4B0C225A610B4BE6
:1024300000229A61094B0022DA61084803F09EFAF3
:102440000346002B01D000F0B5F9064B01221A70AB
:102450000548FEF7CDF800BF80BD00BFF8010020A1
:1024600000440040B00300204475000880B582B0ED
:1024700000AF00237B600C4B1B6B0B4A43F48003C3
:102480001363094B1B6B03F480037B607B680022A2
:102490000021382001F03FFB382001F058FB00BF3D
:1024A0000837BD4680BD00BF0038024080B58CB003
:1024B00000AF07F11C0300221A605A609A60DA60CC
:1024C0001A610023BB61764B1B6B754A43F0100306
:1024D0001363734B1B6B03F01003BB61BB690023D9
:1024E0007B616F4B1B6B6E4A43F0800313636C4B35
:1024F0001B6B03F080037B617B6900233B61684BAE
:102500001B6B674A43F001031363654B1B6B03F0BE
:1025100001033B613B690023FB60614B1B6B604A1D
:1025200043F0040313635E4B1B6B03F00403FB6077
:10253000FB680023BB605A4B1B6B594A43F00203F4
:102540001363574B1B6B03F00203BB60BB68002394
:102550007B60534B1B6B524A43F008031363504B91
:102560001B6B03F008037B607B68002204214D484D
:1025700002F09CF800224FF400514B4802F096F80C
:10258000002244F20841494802F090F800224FF43A
:10259000A251474802F08AF80423FB6101233B6201
:1025A00000237B620023BB6207F11C0319463D48F0
:1025B00001F0C8FE4FF48053FB614FF488133B6277
:1025C00000237B6207F11C031946374801F0BAFE6D
:1025D0004FF40053FB6101233B6200237B62002325
:1025E000BB6207F11C0319462F4801F0ABFE44F211
:1025F0000843FB6101233B6200237B620023BB6233
:1026000007F11C031946294801F09CFE4FF4A25320
:10261000FB6101233B6200237B620023BB6207F165
:102620001C031946224801F08DFE4FF40063FB6144
:1026300000233B6200237B6207F11C0319461C4800
:1026400001F080FE0123FB6100233B6200237B62DB
:1026500007F11C031946154801F074FE01224FF4DE
:102660000061134802F022F84FF40063FB6111236C
:102670003B6201237B620023BB6207F11C03194606
:102680000B4801F05FFE00220221282001F043FAEE
:10269000282001F05CFA00BF3037BD4680BD00BF86
:1026A000003802400010024000040240000C0240CA
:1026B0000008024080B485B000AF78607B681B687A
:1026C000B3F1804F4BD10023FB732EE0FB7B274AF5
:1026D00032F8133007EE903AF8EE677AC7ED027AD7
:1026E000FB7B234A9B00134493ED007AFB7BD7EDE1
:1026F000027A77EE277A1E4A9B001344C3ED007AD4
:10270000FB7B1C4A9B00134493ED007AD7ED027AC1
:1027100067EEA77AFB7B77EE277A164A9B00134475
:10272000C3ED007AFB7B0133FB73FB7B052BCDD91B
:10273000114B1B680133104A13600F4B1B68C72BEA
:102740000ED90E4B1B680E4A13600C4B00221A6008
:10275000094B00221A600B4B01221A7000E000BFE7
:102760001437BD465DF8047B704700BF400200206F
:102770004C02002064020020940200209C020020F1
:10278000A00200209802002080B483B000AF03466E
:10279000FB80FB88B3F5805F04D1054B1B680133D8
:1027A000034A136000BF0C37BD465DF8047B7047D9
:1027B0009C02002080B400AF72B600BF00BFFDE7EE
:1027C00080B483B000AF00237B60104B5B6C0F4A7A
:1027D00043F4804353640D4B5B6C03F480437B6094
:1027E0007B6800233B60094B1B6C084A43F0805315
:1027F0001364064B1B6C03F080533B603B6800BFC7
:102800000C37BD465DF8047B704700BF00380240BE
:1028100080B58EB000AF786007F1240300221A6003
:102820005A609A60DA601A617B681B68604A93425A
:1028300072D100233B625F4B5B6C5E4A43F4807352
:1028400053645C4B5B6C03F480733B623B6A002314
:10285000FB61584B1B6B574A43F001031363554B05
:102860001B6B03F00103FB61FB690023BB61514B50
:102870001B6B504A43F0040313634E4B1B6B03F076
:102880000403BB61BB69F0237B620323BB620023AB
:10289000FB6207F124031946474801F053FD30233A
:1028A0007B620323BB620023FB6207F1240319460A
:1028B000424801F047FD424B424A1A60404B002219
:1028C0005A603F4B00229A603D4B0022DA603C4B3D
:1028D0004FF480621A613A4B4FF400625A61384BF0
:1028E0004FF400529A61364B4FF48072DA61344BE8
:1028F00000221A62324B00225A62314801F042F93A
:102900000346002B01D0FFF755FF7B682C4A9A63E2
:102910002B4A7B68936346E07B681B682A4A934294
:1029200041D100237B61234B5B6C224A43F400734B
:102930005364204B5B6C03F400737B617B69002361
:102940003B611C4B1B6B1B4A43F001031363194B88
:102950001B6B03F001033B613B690023FB60154BDC
:102960001B6B144A43F004031363124B1B6B03F0FD
:102970000403FB60FB680F237B620323BB6200231D
:10298000FB6207F1240319460B4801F0DBFC3023FE
:102990007B620323BB620023FB6207F12403194619
:1029A000064801F0CFFC00BF3837BD4680BD00BFF0
:1029B00000200140003802400000024000080240B0
:1029C00008010020106402400021014080B485B05D
:1029D00000AF78607B681B68B3F1804F0DD1002396
:1029E000FB60094B1B6C084A43F001031364064B60
:1029F0001B6C03F00103FB60FB6800BF1437BD468E
:102A00005DF8047B704700BF0038024080B58AB093
:102A100000AF786007F1140300221A605A609A60D0
:102A2000DA601A617B681B68194A93422CD1002333
:102A30003B61184B5B6C174A43F010035364154B12
:102A40005B6C03F010033B613B690023FB60114B9F
:102A50001B6B104A43F0010313630E4B1B6B03F017
:102A60000103FB60FB684FF4C0637B610223BB6121
:102A70000023FB6103233B6207237B6207F11403FE
:102A80001946054801F05EFC00BF2837BD4680BDF1
:102A900000100140003802400000024080B400AF46
:102AA00000BFFDE780B400AF00BFFDE780B400AF1A
:102AB00000BFFDE780B400AF00BFFDE780B400AF0A
:102AC00000BFFDE780B400AF00BFBD465DF8047BEA
:102AD000704780B400AF00BFBD465DF8047B70470F
:102AE00080B400AF00BFBD465DF8047B704780B581
:102AF00000AF00F0E3F800BF80BD000080B500AF7C
:102B0000024801F0B5F900BF80BD00BF08010020F8
:102B100080B500AF024802F082FB00BF80BD00BF5D
:102B20006801002080B500AF4FF4805001F0D8FD5F
:102B300000BF80BD80B586B000AF7860144A154BE9
:102B4000D31A7B617B693B61134B1B68002B02D15D
:102B5000114B124A1A60104B1A687B6813443A6989
:102B60009A4207D203F010FC03460C221A604FF081
:102B7000FF3309E0084B1B68FB60074B1A687B6852
:102B80001344054A1360FB6818461837BD4680BDDC
:102B90000000022000040000B4030020080500200B
:102BA00080B400AF064BD3F88830054A43F4700375
:102BB000C2F8883000BFBD465DF8047B704700BF97
:102BC00000ED00E0DFF834D0FFF7EAFF0C480D49D4
:102BD0000D4A002302E0D458C4500433C4188C4278
:102BE000F9D30A4A0A4C002301E013600432A242DE
:102BF000FBD303F0CFFBFFF7E5F97047000002209D
:102C0000000000205C000020F07500085C0000203F
:102C100004050020FEE7000080B500AF0E4B1B68E6
:102C20000D4A43F4007313600B4B1B680A4A43F4CC
:102C300080631360084B1B68074A43F4807313607A
:102C4000032000F05DFF0F2000F008F8FFF7B8FD4B
:102C50000023184680BD00BF003C024080B582B012
:102C600000AF7860124B1A68124B1B7819464FF46C
:102C70007A73B3FBF1F3B2FBF3F3184600F075FF80
:102C80000346002B01D001230EE07B680F2B0AD8EE
:102C9000002279684FF0FF3000F03DFF064A7B6864
:102CA0001360002300E0012318460837BD4680BDAD
:102CB00000000020080000200400002080B400AFC5
:102CC000064B1B781A46064B1B681344044A1360D4
:102CD00000BFBD465DF8047B704700BF08000020C0
:102CE000B803002080B400AF034B1B681846BD46F4
:102CF0005DF8047B704700BFB803002080B584B046
:102D000000AF7860FFF7EEFFB8607B68FB60FB68A0
:102D1000B3F1FF3F05D00A4B1B781A46FB681344FA
:102D2000FB6000BFFFF7DEFF0246BB68D31AFA68FC
:102D30009A42F7D800BF00BF1037BD4680BD00BF24
:102D40000800002080B584B000AF78600023FB73DA
:102D50007B68002B01D1012333E07B681B6C002BC7
:102D600009D17868FFF754FD7B6800225A647B68BC
:102D7000002283F83C207B681B6C03F01003002BBF
:102D800018D17B681B6C23F4885323F0020343F0B3
:102D900002027B681A64786800F064FC7B68002299
:102DA0005A647B681B6C23F0030343F001027B68C9
:102DB0001A6401E00123FB737B68002283F83C2046
:102DC000FB7B18461037BD4680BD000080B485B03F
:102DD00000AF78600023BB607B6893F83C30012B28
:102DE00001D10223B2E07B68012283F83C207B689A
:102DF0001B689B6803F00103012B18D07B681B68DC
:102E00009A687B681B6842F001029A60524B1B680B
:102E1000524AA2FB03239A0C13465B001344BB6087
:102E200002E0BB68013BBB60BB68002BF9D17B684B
:102E30001B689B6803F00103012B7AD17B681B6C34
:102E400023F4E06323F0010343F480727B681A6487
:102E50007B681B685B6803F48063002B07D07B688A
:102E60001B6C23F4405343F480527B681A647B68E4
:102E70001B6C03F48053B3F5805F06D17B685B6CF9
:102E800023F006027B685A6402E07B6800225A64E1
:102E90007B68002283F83C20314BFB607B681B6819
:102EA0006FF022021A60FB685B6803F01F03002BBF
:102EB0002AD17B681B682B4A934215D07B681B681C
:102EC000294A934205D1264B5B6803F01F03002B70
:102ED0000AD07B681B68254A934236D1204B5B6839
:102EE00003F01003002B30D17B681B689B6803F054
:102EF0004053002B29D17B681B689A687B681B684C
:102F000042F080429A6020E07B681B68154A934239
:102F10001BD17B681B689B6803F04053002B14D1C6
:102F20007B681B689A687B681B6842F080429A60E5
:102F30000BE07B681B6C43F010027B681A647B68B3
:102F40005B6C43F001027B685A6400231846143717
:102F5000BD465DF8047B70470000002083DE1B4304
:102F600000230140002001400021014000220140D7
:102F700080B483B000AF78607B6893F83C30012B5D
:102F800001D1022321E07B68012283F83C207B6889
:102F90001B689A687B681B6822F001029A607B6854
:102FA0001B689B6803F00103002B09D17B681B6C35
:102FB00023F4885323F0010343F001027B681A6471
:102FC0007B68002283F83C20002318460C37BD465E
:102FD0005DF8047B704780B584B000AF78603960DD
:102FE0000023FB607B681B689B6803F48063B3F578
:102FF000806F13D17B681B689B6803F48073B3F503
:10300000807F0BD17B681B6C43F020027B681A64C5
:103010007B68002283F83C20012363E0FFF762FE17
:10302000F86021E03B68B3F1FF3F1DD03B68002B07
:1030300007D0FFF757FE0246FB68D31A3A689A4258
:1030400012D27B681B681B6803F00203022B0BD0B3
:103050007B681B6C43F004027B681A647B68002267
:1030600083F83C2003233DE07B681B681B6803F06A
:103070000203022BD6D17B681B686FF012021A6024
:103080007B681B6C43F400727B681A647B681B6866
:103090009B6803F04053002B23D17B681B7E002BE1
:1030A0001FD17B681B68DB6A03F47003002B06D01A
:1030B0007B681B689B6803F48063002B11D17B68DD
:1030C0001B6C23F480727B681A647B681B6C03F4AE
:1030D0008053002B05D17B681B6C43F001027B6899
:1030E0001A64002318461037BD4680BD80B588B0ED
:1030F00000AFF860B9607A6000237B610023FB7742
:10310000FB6893F83C30012B01D10223EBE0FB6814
:10311000012283F83C20FB681B689B6803F00103D5
:10312000012B18D0FB681B689A68FB681B6842F08B
:1031300001029A606E4B1B686E4AA2FB03239A0C35
:1031400013465B0013447B6102E07B69013B7B61BA
:103150007B69002BF9D1FB681B689B6803F48073C3
:10316000B3F5807F07D1FB681B689A68FB681B6812
:1031700022F480729A60FB681B689B6803F001036D
:10318000012B40F0A380FB681B6C23F4E06323F069
:10319000010343F48072FB681A64FB681B685B6878
:1031A00003F48063002B07D0FB681B6C23F44053AF
:1031B00043F48052FB681A64FB681B6C03F4805371
:1031C000B3F5805F06D1FB685B6C23F00602FB68F9
:1031D0005A6402E0FB6800225A64FB68002283F80C
:1031E0003C20454BBB61FB689B6B444ADA63FB6840
:1031F0009B6B434A1A64FB689B6B424ADA64FB6828
:103200001B686FF022021A60FB681B685A68FB6833
:103210001B6842F080625A60FB681B689A68FB6812
:103220001B6842F480729A60FB68986BFB681B68AD
:103230004C331946BA687B6800F052FD0346FB77B1
:10324000BB695B6803F01F03002B2AD1FB681B6876
:103250002D4A934215D0FB681B682C4A934205D136
:10326000254B5B6803F01F03002B0AD0FB681B682B
:10327000274A934236D1204B5B6803F01003002BA2
:1032800030D1FB681B689B6803F04053002B29D1A9
:10329000FB681B689A68FB681B6842F080429A6072
:1032A00020E0FB681B68184A93421BD1FB681B682F
:1032B0009B6803F04053002B14D1FB681B689A688D
:1032C000FB681B6842F080429A600BE0FB681B6C55
:1032D00043F01002FB681A64FB685B6C43F0010268
:1032E000FB685A64FB7F18462037BD4680BD00BF8F
:1032F0000000002083DE1B43002301405D380008EE
:10330000173900083339000800200140002101402E
:103310000022014080B584B000AF78600023FB73C9
:103320007B6893F83C30012B01D1022348E07B6895
:10333000012283F83C207B681B689A687B681B68C5
:1033400022F001029A607B681B689B6803F001030E
:10335000002B30D17B681B689A687B681B6822F45D
:1033600080729A607B689B6B93F83530DBB2022BDE
:103370000FD17B689B6B184600F00AFD0346FB7378
:10338000FB7B002B05D07B681B6C43F040027B6805
:103390001A647B681B685A687B681B6822F080622D
:1033A0005A607B681B6C23F4885323F0010343F0BD
:1033B00001027B681A647B68002283F83C20FB7B57
:1033C00018461037BD4680BD80B483B000AF78602A
:1033D0007B681B68DB6C18460C37BD465DF8047BC8
:1033E000704780B483B000AF786000BF0C37BD4633
:1033F0005DF8047B704780B483B000AF786000BF95
:103400000C37BD465DF8047B704780B483B000AFD5
:10341000786000BF0C37BD465DF8047B7047000044
:1034200080B485B000AF786039600023BB607B68F2
:1034300093F83C30012B01D1022305E17B68012286
:1034400083F83C203B681B68092B25D97B681B68E7
:10345000D9683B681B689BB21A4613465B0013444D
:103460001E3B072202FA03F3DA437B681B680A401B
:10347000DA607B681B68D9683B689A683B681B68A0
:103480009BB2184603465B0003441E3B9A407B6890
:103490001B680A43DA6022E07B681B6819693B6895
:1034A0001B689BB21A4613465B001344072202FABC
:1034B00003F3DA437B681B680A401A617B681B6868
:1034C00019693B689A683B681B689BB218460346BB
:1034D0005B0003449A407B681B680A431A613B689F
:1034E0005B68062B24D87B681B68596B3B685A685D
:1034F00013469B001344053B1F2202FA03F3DA43F1
:103500007B681B680A405A637B681B68596B3B6881
:103510001B689BB218463B685A6813469B001344CD
:10352000053B00FA03F27B681B680A435A634CE0D0
:103530003B685B680C2B24D87B681B68196B3B6865
:103540005A6813469B001344233B1F2202FA03F3DD
:10355000DA437B681B680A401A637B681B68196B37
:103560003B681B689BB218463B685A6813469B0031
:103570001344233B00FA03F27B681B680A431A6377
:1035800023E07B681B68D96A3B685A6813469B0036
:103590001344413B1F2202FA03F3DA437B681B68A2
:1035A0000A40DA627B681B68D96A3B681B689BB279
:1035B00018463B685A6813469B001344413B00FA87
:1035C00003F27B681B680A43DA62224BFB607B686C
:1035D0001B68214A934209D13B681B68122B05D115
:1035E000FB685B6843F48002FB685A607B681B6879
:1035F000194A934223D13B681B68102B03D03B68C8
:103600001B68112B1BD1FB685B6843F40002FB684D
:103610005A603B681B68102B11D1104B1B68104A75
:10362000A2FB03239A0C13469B0013445B00BB6070
:1036300002E0BB68013BBB60BB68002BF9D17B6833
:10364000002283F83C20002318461437BD465DF85D
:10365000047B70470023014000200140000000204F
:1036600083DE1B4380B485B000AF7860794BFB608C
:10367000FB685B6823F44032FB685A60FB685A6859
:103680007B685B681A43FB685A607B681B685A68F2
:103690007B681B6822F480725A607B681B685968DB
:1036A0007B681B691A027B681B680A435A607B6847
:1036B0001B685A687B681B6822F040725A607B68FE
:1036C0001B6859687B689A687B681B680A435A6064
:1036D0007B681B689A687B681B6822F400629A60AA
:1036E0007B681B6899687B68DA687B681B680A439B
:1036F0009A607B689B6A584A934222D07B681B6819
:103700009A687B681B6822F070629A607B681B680D
:1037100099687B689A6A7B681B680A439A607B6831
:103720001B689A687B681B6822F040529A607B682D
:103730001B6899687B68DA6A7B681B680A439A6031
:103740000FE07B681B689A687B681B6822F07062D8
:103750009A607B681B689A687B681B6822F04052FD
:103760009A607B681B689A687B681B6822F002027B
:103770009A607B681B6899687B681B7E5A007B682F
:103780001B680A439A607B6893F82030002B1BD09B
:103790007B681B685A687B681B6842F400625A6049
:1037A0007B681B685A687B681B6822F460425A6019
:1037B0007B681B6859687B685B6A013B5A037B68BE
:1037C0001B680A435A6007E07B681B685A687B687D
:1037D0001B6822F400625A607B681B68DA6A7B68A7
:1037E0001B6822F47002DA627B681B68D96A7B6806
:1037F000DB69013B1A057B681B680A43DA627B6858
:103800001B689A687B681B6822F400729A607B6868
:103810001B6899687B6893F830305A027B681B6894
:103820000A439A607B681B689A687B681B6822F46D
:1038300080629A607B681B6899687B685B699A0202
:103840007B681B680A439A6000BF1437BD465DF869
:10385000047B7047002301400100000F80B584B055
:1038600000AF78607B689B6BFB60FB681B6C03F0B0
:103870005003002B3CD1FB681B6C43F40072FB68C7
:103880001A64FB681B689B6803F04053002B2BD124
:10389000FB681B7E002B27D1FB681B68DB6A03F4E7
:1038A0007003002B06D0FB681B689B6803F48063E1
:1038B000002B19D1FB681B685A68FB681B6822F053
:1038C00020025A60FB681B6C23F48072FB681A6448
:1038D000FB681B6C03F48053002B05D1FB681B6C49
:1038E00043F00102FB681A64F868FFF77AFD0EE006
:1038F000FB681B6C03F01003002B03D0F868FFF784
:1039000084FD04E0FB689B6BDB6C7868984700BF24
:103910001037BD4680BD80B584B000AF78607B684D
:103920009B6BFB60F868FFF766FD00BF1037BD4674
:1039300080BD80B584B000AF78607B689B6BFB6016
:10394000FB6840221A64FB685B6C43F00402FB686E
:103950005A64F868FFF759FD00BF1037BD4680BDB7
:1039600080B485B000AF78607B6803F00703FB602C
:103970000C4BDB68BB60BA684FF6FF031340BB60BB
:10398000FB681A02BB68134343F0BF6343F4003380
:10399000BB60044ABB68D36000BF1437BD465DF806
:1039A000047B704700ED00E080B400AF044BDB689F
:1039B0001B0A03F007031846BD465DF8047B7047F9
:1039C00000ED00E080B483B000AF0346FB7197F9CF
:1039D0000730002B0BDBFB7903F01F02074997F937
:1039E00007305B09012000FA02F241F8232000BFF2
:1039F0000C37BD465DF8047B704700BF00E100E076
:103A000080B483B000AF03463960FB7197F907308B
:103A1000002B0ADB3B68DAB20C4997F90730120138
:103A2000D2B20B4483F800230AE03B68DAB20849BB
:103A3000FB7903F00F03043B1201D2B20B441A7658
:103A400000BF0C37BD465DF8047B704700E100E025
:103A500000ED00E080B489B000AFF860B9607A6032
:103A6000FB6803F00703FB61FB69C3F10703042B49
:103A700028BF0423BB61FB690433062B02D9FB6911
:103A8000033B00E000237B614FF0FF32BB6902FA89
:103A900003F3DA43BB681A407B699A404FF0FF3169
:103AA0007B6901FA03F3D9437B680B401343184643
:103AB0002437BD465DF8047B7047000080B582B0B6
:103AC00000AF78607B68013BB3F1807F01D30123B5
:103AD0000FE00A4A7B68013B53600F214FF0FF3033
:103AE000FFF78EFF054B00229A60044B07221A60F5
:103AF000002318460837BD4680BD00BF10E000E037
:103B000080B582B000AF78607868FFF729FF00BF0A
:103B10000837BD4680BD80B586B000AF0346B960AA
:103B20007A60FB7300237B61FFF73EFF78617A6860
:103B3000B9687869FFF78EFF024697F90F30114692
:103B40001846FFF75DFF00BF1837BD4680BD80B542
:103B500082B000AF0346FB7197F907301846FFF7B4
:103B600031FF00BF0837BD4680BD80B582B000AFD1
:103B700078607868FFF7A2FF034618460837BD460D
:103B800080BD000080B586B000AF786000237B6107
:103B9000FFF7A8F838617B68002B01D1012399E079
:103BA0007B68022283F835207B68002283F834206A
:103BB0007B681B681A687B681B6822F001021A6028
:103BC0000FE0FFF78FF802463B69D31A052B08D99F
:103BD0007B6820225A657B68032283F83520032303
:103BE00078E07B681B681B6803F00103002BE8D1B9
:103BF0007B681B681B687B617A69384B13407B616B
:103C00007B685A687B689B681A437B68DB681A4349
:103C10007B681B691A437B685B691A437B689B69F5
:103C20001A437B68DB691A437B681B6A13437A6912
:103C300013437B617B685B6A042B07D17B68DA6A7C
:103C40007B681B6B13437A6913437B617B681B683A
:103C50007A691A607B681B685B697B617B6923F00A
:103C600007037B617B685B6A7A6913437B617B68CE
:103C70005B6A042B17D17B689B6A7A6913437B616B
:103C80007B68DB6A002B0ED0786800F0DFFA034611
:103C9000002B08D07B6840225A657B68012283F89C
:103CA0003520012316E07B681B687A695A617868C1
:103CB00000F096FA0346FB607B68DB6D3F229A407A
:103CC000FB689A607B6800225A657B68012283F852
:103CD0003520002318461837BD4680BD3F8010F0C0
:103CE00080B586B000AFF860B9607A603B600023B1
:103CF000FB75FB689B6D3B61FB6893F83430012BCF
:103D000001D1022340E0FB68012283F83420FB68E4
:103D100093F83530DBB2012B2FD1FB68022283F8F8
:103D20003520FB6800225A653B687A68B968F868F4
:103D300000F028FAFB68DB6D3F229A403B699A60ED
:103D4000FB681B681A68FB681B6842F016021A6061
:103D5000FB681B6C002B07D0FB681B681A68FB68AC
:103D60001B6842F008021A60FB681B681A68FB684F
:103D70001B6842F001021A6005E0FB68002283F82C
:103D800034200223FB75FB7D18461837BD4680BDE5
:103D900080B584B000AF78607B689B6DFB60FEF7F8
:103DA000A1FFB8607B6893F83530DBB2022B08D0F6
:103DB0007B6880225A657B68002283F834200123C7
:103DC00052E07B681B681A687B681B6822F0160249
:103DD0001A607B681B685A697B681B6822F0800246
:103DE0005A617B681B6C002B03D17B689B6C002B9A
:103DF00007D07B681B681A687B681B6822F0080282
:103E00001A607B681B681A687B681B6822F00102D5
:103E10001A6013E0FEF766FF0246BB68D31A052B53
:103E20000CD97B6820225A657B68032283F83520F1
:103E30007B68002283F83420032315E07B681B682D
:103E40001B6803F00103002BE4D17B68DB6D3F228C
:103E50009A40FB689A607B68012283F835207B6872
:103E6000002283F83420002318461037BD4680BD59
:103E700080B586B000AF78600023BB608E4B1B68B6
:103E80008E4AA2FB03239B0A7B617B689B6D3B618F
:103E90003B691B68FB607B68DB6D08229A40FB680E
:103EA0001340002B1AD07B681B681B6803F00403C7
:103EB000002B13D07B681B681A687B681B6822F094
:103EC00004021A607B68DB6D08229A403B699A60A5
:103ED0007B685B6D43F001027B685A657B68DB6D34
:103EE00001229A40FB681340002B12D07B681B68AC
:103EF0005B6903F08003002B0BD07B68DB6D012234
:103F00009A403B699A607B685B6D43F002027B6874
:103F10005A657B68DB6D04229A40FB681340002BD6
:103F200012D07B681B681B6803F00203002B0BD0C8
:103F30007B68DB6D04229A403B699A607B685B6D0D
:103F400043F004027B685A657B68DB6D10229A405F
:103F5000FB681340002B43D07B681B681B6803F091
:103F60000803002B3CD07B68DB6D10229A403B6934
:103F70009A607B681B681B6803F48023002B18D0B1
:103F80007B681B681B6803F40023002B08D17B6847
:103F90001B6C002B24D07B681B6C786898471FE053
:103FA0007B689B6C002B1BD07B689B6C7868984768
:103FB00016E07B681B681B6803F48073002B07D135
:103FC0007B681B681A687B681B6822F008021A600D
:103FD0007B681B6C002B03D07B681B6C7868984750
:103FE0007B68DB6D20229A40FB681340002B00F0B9
:103FF0008F807B681B681B6803F01003002B00F0A8
:1040000087807B68DB6D20229A403B699A607B68E1
:1040100093F83530DBB2052B36D17B681B681A6804
:104020007B681B6822F016021A607B681B685A695D
:104030007B681B6822F080025A617B681B6C002B36
:1040400003D17B689B6C002B07D07B681B681A68C8
:104050007B681B6822F008021A607B68DB6D3F22D8
:104060009A403B699A607B68012283F835207B681F
:10407000002283F834207B681B6D002B7ED07B6888
:104080001B6D7868984779E07B681B681B6803F4B0
:104090008023002B1DD07B681B681B6803F4002362
:1040A000002B0DD17B685B6C002B31D07B685B6C87
:1040B000786898472CE000BF00000020B5814E1BB7
:1040C0007B68DB6B002B23D07B68DB6B78689847C1
:1040D0001EE07B681B681B6803F48073002B0FD104
:1040E0007B681B681A687B681B6822F010021A60E4
:1040F0007B68012283F835207B68002283F8342016
:104100007B68DB6B002B03D07B68DB6B78689847A0
:104110007B685B6D002B32D07B685B6D03F0010325
:10412000002B22D07B68052283F835207B681B6832
:104130001A687B681B6822F001021A60BB680133B1
:10414000BB607A699A4207D37B681B681B6803F0DF
:104150000103002BF2D100E000BF7B68012283F84D
:1041600035207B68002283F834207B68DB6C002BD1
:1041700005D07B68DB6C7868984700E000BF183793
:10418000BD4680BD80B485B000AFF860B9607A608C
:104190003B60FB681B681A68FB681B6822F480227E
:1041A0001A60FB681B683A685A60FB689B68402B82
:1041B00008D1FB681B687A689A60FB681B68BA685C
:1041C000DA6007E0FB681B68BA689A60FB681B68E6
:1041D0007A68DA6000BF1437BD465DF8047B70472B
:1041E00080B485B000AF78607B681B68DBB2103BA1
:1041F000144AA2FB03231B09FB60134AFB68134408
:104200001B781A467B68DA65FB68032B09D97B6843
:104210001B6823F47F7323F003031A1D7B689A65E0
:1042200007E07B681B6823F47F7323F003037A683D
:1042300093657B689B6D18461437BD465DF8047B1B
:10424000704700BFABAAAAAAA475000880B485B0C5
:1042500000AF78600023FB737B689B6ABB607B6860
:104260009B69002B1FD1BB68032B56D801A252F8C3
:1042700023F000BF854200089742000885420008ED
:104280001B4300087B68DB6A03F08073002B46D079
:104290000123FB7343E07B68DB6AB3F1C07F40D14D
:1042A0000123FB733DE07B689B69B3F5005F21D17F
:1042B000BB68032B37D801A252F823F0CD42000887
:1042C000D3420008CD420008E54200080123FB73F9
:1042D00030E07B68DB6A03F08073002B25D001237C
:1042E000FB7322E07B68DB6AB3F1C07F1FD101233F
:1042F000FB731CE0BB68022B03D9BB68032B03D004
:1043000018E00123FB7315E07B68DB6A03F0807320
:10431000002B0ED00123FB730BE000BF0AE000BFAF
:1043200008E000BF06E000BF04E000BF02E000BFFD
:1043300000E000BFFB7B18461437BD465DF8047BE8
:10434000704700BF80B489B000AF78603960002347
:104350007B6100233B610023BB610023FB616BE1B8
:104360000122FB6902FA03F37B613B681B687A69EF
:1043700013403B613A697B699A4240F05A813B683D
:104380005B6803F00303012B05D03B685B6803F017
:104390000303022B30D17B689B68BB61FB695B0028
:1043A000032202FA03F3DB43BA691340BB613B68A3
:1043B000DA68FB695B0002FA03F3BA691343BB6175
:1043C0007B68BA699A607B685B68BB610122FB69A4
:1043D00002FA03F3DB43BA691340BB613B685B68D5
:1043E0001B0903F00102FB6902FA03F3BA691343E4
:1043F000BB617B68BA695A603B685B6803F0030382
:10440000032B17D07B68DB68BB61FB695B00032271
:1044100002FA03F3DB43BA691340BB613B689A6855
:10442000FB695B0002FA03F3BA691343BB617B6863
:10443000BA69DA603B685B6803F00303022B23D19F
:10444000FB69DA087B68083253F82230BB61FB69EC
:1044500003F007039B000F2202FA03F3DB43BA6960
:104460001340BB613B681A69FB6903F007039B00BB
:1044700002FA03F3BA691343BB61FB69DA087B688C
:104480000832B96943F822107B681B68BB61FB697D
:104490005B00032202FA03F3DB43BA691340BB61FA
:1044A0003B685B6803F00302FB695B0002FA03F3FD
:1044B000BA691343BB617B68BA691A603B685B6881
:1044C00003F44033002B00F0B4800023FB60604B0A
:1044D0005B6C5F4A43F4804353645D4B5B6C03F455
:1044E0008043FB60FB685B4AFB699B08023352F820
:1044F0002330BB61FB6903F003039B000F2202FA28
:1045000003F3DB43BA691340BB617B68524A9342B1
:104510002BD07B68514A934225D07B68504A934206
:104520001FD07B684F4A934219D07B684E4A934212
:1045300013D07B684D4A93420DD07B684C4A93421E
:1045400007D07B684B4A934201D107230EE0082332
:104550000CE006230AE0052308E0042306E0032319
:1045600004E0022302E0012300E00023FA6902F0E4
:10457000030292009340BA691343BB613549FB695A
:104580009B080233BA6941F823203B4B9B68BB610F
:104590003B69DB43BA691340BB613B685B6803F46A
:1045A0008013002B03D0BA693B691343BB61324AC5
:1045B000BB699360304BDB68BB613B69DB43BA6925
:1045C0001340BB613B685B6803F40013002B03D00E
:1045D000BA693B691343BB61274ABB69D360264B69
:1045E0005B68BB613B69DB43BA691340BB613B68F5
:1045F0005B6803F40033002B03D0BA693B691343B3
:10460000BB611D4ABB6953601B4B1B68BB613B69A7
:10461000DB43BA691340BB613B685B6803F48033DA
:10462000002B03D0BA693B691343BB61124ABB69D3
:104630001360FB690133FB61FB690F2B7FF690AEC2
:1046400000BF00BF2437BD465DF8047B704700BF44
:1046500000380240003801400000024000040240DF
:1046600000080240000C024000100240001402400A
:1046700000180240001C0240003C014080B485B09C
:1046800000AF78600B467B807B681A697B8813409B
:10469000002B02D00123FB7301E00023FB73FB7BA3
:1046A00018461437BD465DF8047B704780B483B06C
:1046B00000AF78600B467B8013467B707B78002BC5
:1046C00003D07A887B689A6103E07B881A047B6850
:1046D0009A6100BF0C37BD465DF8047B704700004F
:1046E00080B582B000AF0346FB80084B5A69FB8857
:1046F0001340002B06D0054AFB885361FB881846FF
:10470000FEF742F800BF0837BD4680BD003C0140BF
:1047100080B586B000AF78607B68002B01D10123A3
:1047200067E27B681B6803F00103002B75D0884BA0
:104730009B6803F00C03042B0CD0854B9B6803F0A3
:104740000C03082B12D1824B5B6803F48003B3F592
:10475000800F0BD17E4B1B6803F40033002B5BD022
:104760007B685B68002B57D1012342E27B685B6862
:10477000B3F5803F06D1764B1B68754A43F480330E
:1047800013601DE07B685B68B3F5A02F0CD1704B04
:104790001B686F4A43F4802313606D4B1B686C4A9F
:1047A00043F4803313600BE0694B1B68684A23F4C1
:1047B00080331360664B1B68654A23F480231360C3
:1047C0007B685B68002B13D0FEF78CFA386108E039
:1047D000FEF788FA02463B69D31A642B01D90323FA
:1047E00007E25B4B1B6803F40033002BF0D014E0AE
:1047F000FEF778FA386108E0FEF774FA02463B6982
:10480000D31A642B01D90323F3E1514B1B6803F442
:104810000033002BF0D100E000BF7B681B6803F081
:104820000203002B63D04A4B9B6803F00C03002B60
:104830000BD0474B9B6803F00C03082B1CD1444B57
:104840005B6803F48003002B16D1414B1B6803F017
:104850000203002B05D07B68DB68012B01D001230C
:10486000C7E13B4B1B6823F0F8027B681B69DB0048
:10487000374913430B603AE07B68DB68002B20D09C
:10488000344B01221A60FEF72DFA386108E0FEF77A
:1048900029FA02463B69D31A022B01D90323A8E166
:1048A0002B4B1B6803F00203002BF0D0284B1B6836
:1048B00023F0F8027B681B69DB00254913430B607A
:1048C00015E0244B00221A60FEF70CFA386108E06C
:1048D000FEF708FA02463B69D31A022B01D90323DB
:1048E00087E11B4B1B6803F00203002BF0D17B68B0
:1048F0001B6803F00803002B36D07B685B69002B34
:1049000016D0154B01221A60FEF7ECF9386108E069
:10491000FEF7E8F902463B69D31A022B01D90323BB
:1049200067E10B4B5B6F03F00203002BF0D01BE041
:10493000094B00221A60FEF7D5F938610EE0FEF748
:10494000D1F902463B69D31A022B07D9032350E160
:104950000038024000004742800E4742884B5B6FA0
:1049600003F00203002BEAD17B681B6803F0040309
:10497000002B00F097800023FB75814B1B6C03F02C
:104980008053002B0FD10023BB607D4B1B6C7C4AF6
:1049900043F0805313647A4B1B6C03F08053BB606D
:1049A000BB680123FB75774B1B6803F48073002BF6
:1049B00018D1744B1B68734A43F480731360FEF77D
:1049C00091F9386108E0FEF78DF902463B69D31A88
:1049D000022B01D903230CE16A4B1B6803F480739B
:1049E000002BF0D07B689B68012B06D1644B1B6FBA
:1049F000634A43F0010313671CE07B689B68052B47
:104A00000CD15F4B1B6F5E4A43F0040313675C4B92
:104A10001B6F5B4A43F0010313670BE0584B1B6F9E
:104A2000574A23F001031367554B1B6F544A23F079
:104A3000040313677B689B68002B15D0FEF752F9BF
:104A400038610AE0FEF74EF902463B69D31A41F29B
:104A50008832934201D90323CBE0494B1B6F03F00B
:104A60000203002BEED014E0FEF73CF938610AE0B7
:104A7000FEF738F902463B69D31A41F28832934275
:104A800001D90323B5E03E4B1B6F03F00203002B5B
:104A9000EED1FB7D012B05D1394B1B6C384A23F03D
:104AA000805313647B689B69002B00F0A180344B1A
:104AB0009B6803F00C03082B5CD07B689B69022B7E
:104AC00041D1314B00221A60FEF70CF9386108E041
:104AD000FEF708F902463B69D31A022B01D90323DA
:104AE00087E0274B1B6803F00073002BF0D17B6835
:104AF000DA697B681B6A1A437B685B6A9B011A430D
:104B00007B689B6A5B08013B1B041A437B68DB6A7A
:104B10001B061B4913434B601B4B01221A60FEF717
:104B2000E1F8386108E0FEF7DDF802463B69D31A88
:104B3000022B01D903235CE0114B1B6803F00073C7
:104B4000002BF0D054E0104B00221A60FEF7CAF898
:104B5000386108E0FEF7C6F802463B69D31A022B1B
:104B600001D9032345E0064B1B6803F00073002BBB
:104B7000F0D13DE07B689B69012B07D1012338E030
:104B80000038024000700040600047421B4B5B68E9
:104B9000FB607B689B69012B28D0FB6803F48002D3
:104BA0007B68DB699A4221D1FB6803F03F027B6896
:104BB0001B6A9A421AD1FA6847F6C07313407A68A2
:104BC000526A9201934211D1FB6803F440327B6830
:104BD0009B6A5B08013B1B049A4207D1FB6803F008
:104BE00070627B68DB6A1B069A4201D0012300E0F9
:104BF000002318461837BD4680BD00BF003802406C
:104C000080B584B000AF786039607B68002B01D13B
:104C10000123CCE0684B1B6803F007033A689A4213
:104C20000CD9654B3A68D2B21A70634B1B6803F01B
:104C300007033A689A4201D00123B8E07B681B68F9
:104C400003F00203002B20D07B681B6803F00403F1
:104C5000002B05D0594B9B68584A43F4E0539360AE
:104C60007B681B6803F00803002B05D0534B9B683F
:104C7000524A43F460439360504B9B6823F0F00228
:104C80007B689B684D4913438B607B681B6803F00E
:104C90000103002B44D07B685B68012B07D1474B95
:104CA0001B6803F40033002B19D101237FE07B68DC
:104CB0005B68022B03D07B685B68032B07D13F4BFB
:104CC0001B6803F00073002B09D101236FE03B4BFD
:104CD0001B6803F00203002B01D1012367E0374B6F
:104CE0009B6823F003027B685B68344913438B6045
:104CF000FDF7F8FFF8600AE0FDF7F4FF0246FB68F5
:104D0000D31A41F28832934201D903234FE02B4B4F
:104D10009B6803F00C027B685B689B009A42EBD1B6
:104D2000254B1B6803F007033A689A420CD2224BCA
:104D30003A68D2B21A70204B1B6803F007033A6836
:104D40009A4201D0012332E07B681B6803F0040320
:104D5000002B08D0194B9B6823F4E0527B68DB687A
:104D6000164913438B607B681B6803F00803002B14
:104D700009D0124B9B6823F460427B681B69DB00FF
:104D80000E4913438B6000F021F802460B4B9B68E1
:104D90001B0903F00F030A49CB5C22FA03F3094A0B
:104DA0001360094B1B681846FDF758FF002318468F
:104DB0001037BD4680BD00BF003C024000380240B5
:104DC0008C75000800000020040000202DE9B04F81
:104DD00094B000AF00237B640023FB6400233B649A
:104DE0000023BB64794B9B6803F00C03082B0DD0A8
:104DF000082B00F2E180002B02D0042B03D0DBE073
:104E0000734BBB64DBE0734BBB64D8E06F4B5B68F8
:104E100003F03F037B646D4B5B6803F48003002B5E
:104E200063D06A4B5B689B090022BB63FA63BB6B70
:104E3000C3F308033B6300237B63D7E90C45224699
:104E40002B464FF000004FF00001590141EAD261BA
:104E5000500102460B462146511A3961294663EB3F
:104E600001037B614FF000024FF00003D7E904AB70
:104E700059468B01514643EA916351468A01514696
:104E8000B2EB0108594663EB01094FF000024FF005
:104E900000034FEAC90343EA58734FEAC802904639
:104EA0009946234618EB0303BB602B4649EB0303EB
:104EB000FB604FF000024FF00003D7E9024529469E
:104EC0004B02214643EAD15321464A021046194675
:104ED0007B6C0022BB62FA62D7E90A23FBF7D0F9A8
:104EE00002460B461346FB6458E0384B5B689B094F
:104EF000002218461146C0F308033B6200237B6280
:104F0000D7E9088942464B464FF000004FF00001B8
:104F1000590141EAD261500102460B464146B2EBCB
:104F2000010A494663EB010B4FF000024FF000030A
:104F30004FEA8B1343EA9A634FEA8A12B2EB0A04F0
:104F400063EB0B054FF000024FF00003EB0043EA68
:104F50005473E20014461D464346E3183B604B463B
:104F600045EB03037B604FF000024FF00003D7E9ED
:104F7000004529468B02214643EA915321468A0285
:104F8000104619467B6C0022BB61FA61D7E9062303
:104F9000FBF776F902460B461346FB640B4B5B6846
:104FA0001B0C03F0030301335B003B64FA6C3B6CA6
:104FB000B2FBF3F3BB6402E0054BBB6400BFBB6C08
:104FC00018465037BD46BDE8B08F00BF00380240DC
:104FD0000024F40000127A0080B400AF034B1B6879
:104FE0001846BD465DF8047B704700BF00000020F6
:104FF00080B500AFFFF7F0FF0246054B9B689B0AA8
:1050000003F007030349CB5C22FA03F3184680BD83
:10501000003802409C75000880B500AFFFF7DCFF48
:105020000246054B9B685B0B03F007030349CB5C0F
:1050300022FA03F3184680BD003802409C75000830
:1050400080B582B000AF78607B68002B01D101236E
:1050500041E07B6893F83D30DBB2002B06D17B68E2
:10506000002283F83C207868FDF7B0FC7B680222C0
:1050700083F83D207B681A687B6804331946104624
:1050800000F0ACFA7B68012283F846207B6801229D
:1050900083F83E207B68012283F83F207B68012251
:1050A00083F840207B68012283F841207B6801223D
:1050B00083F842207B68012283F843207B68012229
:1050C00083F844207B68012283F845207B68012215
:1050D00083F83D20002318460837BD4680BD0000F8
:1050E00080B485B000AF78607B6893F83D30DBB268
:1050F000012B01D001234EE07B68022283F83D2082
:105100007B681B68DA687B681B6842F00102DA6022
:105110007B681B68234A934222D07B681B68B3F1EB
:10512000804F1DD07B681B681F4A934218D07B6854
:105130001B681E4A934213D07B681B681C4A93422B
:105140000ED07B681B681B4A934209D07B681B68A2
:10515000194A934204D07B681B68184A934211D1C4
:105160007B681B689B6803F00703FB60FB68062BEA
:1051700010D07B681B681A687B681B6842F00102CC
:105180001A6007E07B681B681A687B681B6842F03E
:1051900001021A60002318461437BD465DF8047BEF
:1051A000704700BF000001400004004000080040BC
:1051B000000C004000040140004001400018004085
:1051C00080B483B000AF78607B681B68DA687B6866
:1051D0001B6822F00102DA607B681B681A6A41F2E0
:1051E00011131340002B0FD17B681B681A6A40F221
:1051F00044431340002B07D17B681B681A687B6807
:105200001B6822F001021A607B68012283F83D20AE
:10521000002318460C37BD465DF8047B704780B507
:1052200084B000AF78607B681B68DB68FB607B68DC
:105230001B681B69BB60BB6803F00203002B20D016
:10524000FB6803F00203002B1BD07B681B686FF028
:1052500002021A617B6801221A777B681B689B69CE
:1052600003F00303002B03D0786800F099F905E000
:10527000786800F08BF9786800F09CF97B68002270
:105280001A77BB6803F00403002B20D0FB6803F0FF
:105290000403002B1BD07B681B686FF004021A61AB
:1052A0007B6802221A777B681B689B6903F4407352
:1052B000002B03D0786800F073F905E0786800F0FF
:1052C00065F9786800F076F97B6800221A77BB6888
:1052D00003F00803002B20D0FB6803F00803002B29
:1052E0001BD07B681B686FF008021A617B68042280
:1052F0001A777B681B68DB6903F00303002B03D07C
:10530000786800F04DF905E0786800F03FF97868BA
:1053100000F050F97B6800221A77BB6803F0100395
:10532000002B20D0FB6803F01003002B1BD07B6800
:105330001B686FF010021A617B6808221A777B687D
:105340001B68DB6903F44073002B03D0786800F01E
:1053500027F905E0786800F019F9786800F02AF973
:105360007B6800221A77BB6803F00103002B0CD086
:10537000FB6803F00103002B07D07B681B686FF00C
:1053800001021A617868FDF795F9BB6803F08003A4
:10539000002B0CD0FB6803F08003002B07D07B6848
:1053A0001B686FF080021A61786800F0DDFABB6854
:1053B00003F04003002B0CD0FB6803F04003002BEC
:1053C00007D07B681B686FF040021A61786800F0B4
:1053D000FBF8BB6803F02003002B0CD0FB6803F044
:1053E0002003002B07D07B681B686FF020021A6136
:1053F000786800F0AFFA00BF1037BD4680BD80B5B9
:1054000084B000AF786039600023FB737B6893F849
:105410003C30012B01D10223B4E07B68012283F8E8
:105420003C207B68022283F83D207B681B689B68D8
:10543000BB60BB6823F07703BB60BB6823F47F438A
:10544000BB607B681B68BA689A603B681B68B3F5F1
:10545000005F3ED0B3F5005F00F28780B3F5805F58
:1054600000F08680B3F5805F7FD8702B1AD0702B48
:105470007BD8602B50D0602B77D8502B3CD0502B52
:1054800073D8402B58D0402B6FD8302B64D0302BA2
:105490006BD8202B60D0202B67D8002B5CD0102B32
:1054A0005AD062E07B6818683B6899683B685A6824
:1054B0003B68DB6800F0B2F97B681B689B68BB60E7
:1054C000BB6843F07703BB607B681B68BA689A606F
:1054D0004FE07B6818683B6899683B685A683B688E
:1054E000DB6800F09BF97B681B689A687B681B6827
:1054F00042F480429A603CE07B6818683B685968D7
:105500003B68DB681A4600F00FF97B681B68502186
:10551000184600F068F92CE07B6818683B68596809
:105520003B68DB681A4600F02EF97B681B68602137
:10553000184600F058F91CE07B6818683B68596809
:105540003B68DB681A4600F0EFF87B681B68402177
:10555000184600F048F90CE07B681A683B681B6845
:105560001946104600F03FF903E00123FB7300E009
:1055700000BF7B68012283F83D207B68002283F80E
:105580003C20FB7B18461037BD4680BD80B483B0FD
:1055900000AF786000BF0C37BD465DF8047B7047F4
:1055A00080B483B000AF786000BF0C37BD465DF8B3
:1055B000047B704780B483B000AF786000BF0C37C5
:1055C000BD465DF8047B704780B483B000AF78605F
:1055D00000BF0C37BD465DF8047B704780B485B0D2
:1055E00000AF786039607B681B68FB607B68434A6A
:1055F000934213D07B68B3F1804F0FD07B68404A51
:1056000093420BD07B683F4A934207D07B683E4A67
:10561000934203D07B683D4A934208D1FB6823F054
:105620007003FB603B685B68FA681343FB607B6850
:10563000324A93422BD07B68B3F1804F27D07B68EE
:105640002F4A934223D07B682E4A93421FD07B6817
:105650002D4A93421BD07B682C4A934217D07B681B
:105660002B4A934213D07B682A4A93420FD07B681F
:10567000294A93420BD07B68284A934207D07B6823
:10568000274A934203D07B68264A934208D1FB689D
:1056900023F44073FB603B68DB68FA681343FB60EC
:1056A000FB6823F080023B685B691343FB603B6847
:1056B0009A687B68DA623B681A687B689A627B68E2
:1056C0000E4A934203D07B68104A934203D13B6851
:1056D0001A697B681A637B681B6843F004027B6865
:1056E0001A607B6801225A617B68FA681A6000BF01
:1056F0001437BD465DF8047B704700BF00000140D1
:105700000004004000080040000C0040000401407C
:1057100000400140004401400048014000180040A2
:10572000001C00400020004080B487B000AFF8604B
:10573000B9607A60FB681B6A7B61FB681B6A23F0B7
:105740000102FB681A62FB689B693B613B6923F0BD
:10575000F0033B617B681B013A6913433B617B6942
:1057600023F00A037B617A69BB6813437B61FB68A2
:105770003A699A61FB687A691A6200BF1C37BD46B4
:105780005DF8047B704780B487B000AFF860B96003
:105790007A60FB681B6A7B61FB681B6A23F010025E
:1057A000FB681A62FB689B693B613B6923F47043A9
:1057B0003B617B681B033A6913433B617B6923F0C0
:1057C000A0037B61BB681B017A6913437B61FB68A3
:1057D0003A699A61FB687A691A6200BF1C37BD4654
:1057E0005DF8047B704780B485B000AF78603960A5
:1057F0007B689B68FB60FB6823F07003FB603A6882
:10580000FB68134343F00703FB607B68FA689A6008
:1058100000BF1437BD465DF8047B704780B487B085
:1058200000AFF860B9607A603B60FB689B687B61A1
:105830007B6923F47F437B613B681A027B681A43D0
:10584000BB6813437A6913437B61FB687A699A608A
:1058500000BF1C37BD465DF8047B704780B485B03F
:1058600000AF786039607B6893F83C30012B01D140
:1058700002235AE07B68012283F83C207B680222E5
:1058800083F83D207B681B685B68FB607B681B6856
:105890009B68BB60FB6823F07003FB603B681B6880
:1058A000FA681343FB607B681B68FA685A607B6880
:1058B0001B68214A934222D07B681B68B3F1804F5A
:1058C0001DD07B681B681D4A934218D07B681B68FB
:1058D0001B4A934213D07B681B681A4A93420ED02E
:1058E0007B681B68184A934209D07B681B68174A7B
:1058F000934204D07B681B68154A93420CD1BB6865
:1059000023F08003BB603B685B68BA681343BB60ED
:105910007B681B68BA689A607B68012283F83D2027
:105920007B68002283F83C20002318461437BD46CC
:105930005DF8047B704700BF000001400004004098
:1059400000080040000C00400004014000400140FD
:105950000018004080B483B000AF786000BF0C37FF
:10596000BD465DF8047B704780B483B000AF7860BB
:1059700000BF0C37BD465DF8047B704780B582B030
:1059800000AF78607B68002B01D1012342E07B6887
:1059900093F84130DBB2002B06D17B68002283F8FC
:1059A00040207868FDF732F87B68242283F8412094
:1059B0007B681B68DA687B681B6822F40052DA6037
:1059C000786800F015FA7B681B681A697B681B68A9
:1059D00022F490421A617B681B685A697B681B68D5
:1059E00022F02A025A617B681B68DA687B681B68B0
:1059F00042F40052DA607B6800225A647B682022FD
:105A000083F841207B68202283F842207B680022B3
:105A10005A63002318460837BD4680BD80B58AB05A
:105A200002AFF860B9603B601346FB8000237B61E6
:105A3000FB6893F84130DBB2202B75D1BB68002B9B
:105A400002D0FB88002B01D101236EE0FB6800220D
:105A50005A64FB68212283F84120FDF743F97861FD
:105A6000FB68FA889A84FB68FA88DA84FB689B688A
:105A7000B3F5805F08D1FB681B69002B04D10023BC
:105A8000FB61BB68BB6103E0BB68FB610023BB61DA
:105A90002EE03B6800937B6900228021F86800F0CB
:105AA000EBF80346002B05D0FB68202283F8412049
:105AB00003233AE0FB69002B0BD1BB691B881A4614
:105AC000FB681B68C2F308025A60BB690233BB6102
:105AD00007E0FB691A78FB681B685A60FB690133B1
